:100000000211C1008F828E83E0540100000070F85D
:100010002278FFE4F6D8FD02121FEC4D6011E8498A
:100020007017ED33EC3304600DE4FCFFFEFD22E9B4
:1000300033E8330470F80202E31202AE5804600998
:10004000E4CC248150062850090202ED2840030226
:1000500002EAC0E0EB4A7044B98006D0E0FB02023D
:10006000D9EF4E701CBD8008EBFFEAFEE9FD80EB86
:10007000E98DF0A4FEE5F0020103E9CDF9EAFEEB1B
:10008000FFEF89F0A4FCE5F0CE89F0A42EFFE43563
:10009000F0CD89F0A42DFEE435F08067EF4E7005B9
:1000A000BD80D780C3EF8BF0A4ACF0EE8BF0A42C16
:1000B000FCE435F0F8EF8AF0A42CE5F038FCE433EA
:1000C000CB8DF0A42CFCE5F03BF8EE8AF0A42CFCE0
:1000D000E5F038F8E433CF89F0A42CFCE5F038CF14
:1000E0003400CE89F0A42FFFE5F03EFEE433C98D45
:1000F000F0A42EFEE5F039CD8AF0A42FFFE5F03E06
:10010000FEE43DFD33D0E0FB50070BBB000F0202C5
:10011000EDEC2CFCEF33FFEE33FEED33FD0202C5B8
:100120000202EDEC5D046005E8590470030202E38D
:100130001202AE580460F6EC4860F2EC7004FDFE6A
:10014000FF22C860DB2481C85009C39860025006B2
:100150000202EA9850CAF582E9294B4A7005AB823F
:100160000202D975F0007C1A7880C3EF9BEE9AEDFD
:1001700099400DC3EF9BFFEE9AFEED99FDE842F02A
:10018000DC23ACF0D0E0FFD0E0FED0E0FDAB82207D
:10019000E7101BEB60BAEC2CFCEF33FFEE33FEED07
:1001A00033FD0202C5E803F830E705C0F075F00042
:1001B000EF2FFFEE33FEED33FD40B830E7C280AAEB
:1001C00074F8CC6480CCC86480C8F58204604FC3E6
:1001D000EB9FF5F0EA9E42F0E99D42F0E89C45F085
:1001E000603C501DE5825FFFE582D313CB5BCBF40F
:1001F0002B5582FB50280ABA002409B90020088038
:100200001DE5825BFBE582D313CF5FCFF4C3132FD1
:100210005582FF50090EBE00050DBD00010CC3EB59
:100220009FF5F0EA9E42F0E99D42F0E89C45F060BF
:1002300007CC4820E701B3EC2275F020800E75F062
:1002400010800575F0087D007E007F003392D53068
:10025000D50312047EEC334010EF33FFEE33FEED96
:1002600033FDEC33FCD5F0ED22E5F0247EA2D5136E
:10027000CC92E7CDCEFF22EDD2E7CD33EC3392D551
:1002800024814006E4FFFEFDFC22FCE4CFCECDCC71
:1002900024E0501174FF80EDC3CC13CCCD13CDCE30
:1002A00013CECF13CF0470F030D5DE02047EE9D236
:1002B000E7C933E833F892D5EDD2E7CD33EC33FC20
:1002C0005002B2D522EC30E7100FBF000C0EBE007A
:1002D000080DBD00040BEB6014A2D5EB13FCED92EE
:1002E000E7FD2274FFFCFDFEFF22E480F8A2D57436
:1002F000FF13FC7D80E480EFBB010689828A83E0E6
:10030000225002E722BBFE02E32289828A83E49321
:1003100022BB010689828A83F0225002F722BBFEAB
:1003200001F322C5F0F8A3E028F0C5F0F8E5821546
:100330008270021583E038F022EF2BFFEE3AFEEDDB
:1003400039FDEC38FC22C3EF9BFFEE9AFEED99FDE0
:10035000EC98FC22E88FF0A4CC8BF0A42CFCE98E66
:10036000F0A42CFC8AF0EDA42CFCEA8EF0A4CDA81D
:10037000F08BF0A42DCC3825F0FDE98FF0A42CCD26
:1003800035F0FCEB8EF0A4FEA9F0EB8FF0A4CFC506
:10039000F02ECD39FEE43CFCEAA42DCE35F0FDE490
:1003A0003CFC2275F008758200EF2FFFEE33FECD86
:1003B00033CDCC33CCC58233C5829BED9AEC99E525
:1003C0008298400CF582EE9BFEED9AFDEC99FC0FB5
:1003D000D5F0D6E4CEFBE4CDFAE4CCF9A88222B87D
:1003E00000C1B90059BA002DEC8BF084CFCECDFC02
:1003F000E5F0CBF97818EF2FFFEE33FEED33FDEC8F
:1004000033FCEB33FB10D703994004EB99FB0FD877
:10041000E5E4F9FA227818EF2FFFEE33FEED33FD15
:10042000EC33FCC933C910D7059BE99A4007EC9B14
:10043000FCE99AF90FD8E0E4C9FAE4CCFB2275F0A4
:1004400010EF2FFFEE33FEED33FDCC33CCC833C8B5
:1004500010D7079BEC9AE899400AED9BFDEC9AFCBB
:10046000E899F80FD5F0DAE4CDFBE4CCFAE4C8F96A
:1004700022EF4BFFEE4AFEED49FDEC48FC22C3E4BF
:100480009FFFE49EFEE49DFDE49CFC22EB9FF5F0C3
:10049000EA9E42F0E99D42F0E89C45F022E8600FB8
:1004A000ECC313FCED13FDEE13FEEF13FFD8F122A6
:1004B000E8600FEFC333FFEE33FEED33FDEC33FCAA
:1004C000D8F122BB010789828A830204FD5005E925
:1004D000F80205B6BBFE05E9F80205C289828A83E7
:1004E0000205CEBB010789828A830205155005E902
:1004F000F80205DEBBFE05E9F80205EA22E0FCA3EE
:10050000E0FDA3E0FEA3E0FF22E0F8A3E0F9A3E012
:10051000FAA3E0FB22ECF0A3EDF0A3EEF0A3EFF0E2
:1005200022E0FBA3E0FAA3E0F922EBF0A3EAF0A3B8
:10053000E9F022E493FB740193FA740293F922D058
:1005400083D082F8E4937012740193700DA3A39387
:10055000F8740193F5828883E4737402936860EF02
:10056000A3A3A380DFE50C2582F582E50B3583F597
:1005700083B50B0485820C2210AF0685820CF50B27
:100580002285820CF50BD2AF22EC8EF0A4CCC5F004
:10059000CCCDF8EFA4CEC5F02DFDE43CFCE8A42EB4
:1005A000C8C5F03DFDE43CFCEFA4FFE5F028FEE407
:1005B0003DFDE43CFC22E6FC08E6FD08E6FE08E61C
:1005C000FF22E2FC08E2FD08E2FE08E2FF22E493DB
:1005D000FC740193FD740293FE740393FF22ECF606
:1005E00008EDF608EEF608EFF622ECF208EDF20858
:1005F000EEF208EFF222900063EFF0900064ECF06E
:10060000A3EDF0900066EAF0A3EBF0900069E0FF44
:10061000EFD3940050030207F5900069E0FFEFD399
:10062000940140030207F5900063E0FFEF12053FDD
:10063000064301064304067007069B0806C60A0027
:100640000006F1900068E0FFEFD3940F40117B0C9F
:100650007A017918121FD890006AEFF00206F67B33
:100660000C7A01791C121FD890006AEFF00206F68E
:10067000900068E0FFEFD3940F40107B0C7A017973
:1006800019121FD890006AEFF0806B7B0C7A017909
:100690001D121FD890006AEFF0805B900068E0FFA9
:1006A000EFD3940F40107B0C7A01791A121FD89067
:1006B000006AEFF080407B0C7A01791E121FD890FF
:1006C000006AEFF08030900068E0FFEFD3940F40B5
:1006D000107B0C7A01791B121FD890006AEFF08012
:1006E000157B0C7A01791F121FD890006AEFF080F9
:1006F0000590006AE4F090006AE0FFEF3395E0FEB9
:10070000FDFC7B207A0079007800120354A804A92C
:1007100005AA06AB07900064E0FEA3E0FFE4FCFD41
:1007200012033990006B12051590006B1204FDAB9B
:1007300007AA06A905A804A804A905AA06AB07905C
:100740000066E0FEA3E0FFE4FCFD1203549000719C
:100750001205157B007A80790078009000711204F0
:10076000FD1203DF90006FEEF0A3EFF0900068E061
:10077000FFEFC3940E504790006FE0FEA3E0FF90A0
:100780000068E0FDC3740E9DFDEFA805088005CE4E
:10079000C313CE13D8F9FF90006FEEF0A3EFF090E3
:1007A0000068E0FFEF04FF900069E0FEEE75F003E3
:1007B000A4247CF582E43400F583EFF080169000E9
:1007C00069E0FFEF75F003A4247CF582E43400F5C2
:1007D00083740FF090006FE0FEA3E0FF900069E0EB
:1007E000FDED75F003A4247AF582E43400F583EE80
:1007F000F0A3EFF0227F00121F0422900064EEF0BD
:10080000A3EFF0900066EDF0122005900068EFF085
:10081000121FFB900069EEF0A3EFF0900069E0FE7C
:10082000A3E0FF900064E0FCA3E0FDED6F7002EC3C
:100830006E700302098F9043A2E0FFEF5401FF9016
:100840000067EFF0900068E0FFEF705E900069E0F5
:10085000FEA3E0FFEF4E600C900064E0FEA3E0FF1B
:10086000EF4E7046900069E0FEA3E0FFEF4E701D72
:100870007B027A407980900064E0FCA3E0FD121FC7
:100880008C904082E0FFEF54BFFFEFF02290408257
:10089000E0FFEF4440FFEFF07B027A407980900068
:1008A00064E0FCA3E0FD121F8C22900067E0FFEFE4
:1008B000606C904001E4F09040107401F09040149E
:1008C000E4F0904008E0FFEF547FFFEFF0904082AB
:1008D000E0FFEF5408FF7E00EF4E600C900064E0F4
:1008E000FEA3E0FFEF4E70367B027A407902900063
:1008F00069E0FCA3E0FD121F8C9040017407F090AA
:100900004001E0FFEF5401FF7E00EF4E70F1904395
:10091000A2E0FFEF54FEFFEFF0904001E4F09043BF
:10092000A2E0FFEF5401FF7E00EF4E603A7B027AB7
:10093000407902900064E0FCA3E0FD121F8C90005F
:1009400066E0FFEF60047F0280027F00EF4401FF5A
:10095000904001EFF0904001E0FFEF5401FF7E0076
:10096000EF4E602B80EF227B027A4079809000640A
:10097000E0FCA3E0FD121F8C9043A2C083C082E084
:10098000FF900067E0FEEF4EFFD082D083EFF022B1
:10099000900064EEF0A3EFF0900066EDF0122019E5
:1009A000900068EFF012200F900069EEF0A3EFF0D6
:1009B000900069E0FEA3E0FF900064E0FCA3E0FD8E
:1009C000ED6F7002EC6E7003020B249043A1E0FF08
:1009D000EF5401FF900067EFF0900068E0FFEF70C8
:1009E0005E900069E0FEA3E0FFEF4E600C900064B3
:1009F000E0FEA3E0FFEF4E7046900069E0FEA3E04A
:100A0000FFEF4E701D7B027A417900900064E0FC9C
:100A1000A3E0FD121F8C904102E0FFEF54BFFFEFF7
:100A2000F022904102E0FFEF4440FFEFF07B027ABA
:100A3000417900900064E0FCA3E0FD121F8C22903D
:100A40000067E0FFEF606C904001E4F090401474A8
:100A500001F0904010E4F0904008E0FFEF547FFF79
:100A6000EFF0904102E0FFEF5408FF7E00EF4E6090
:100A70000C900064E0FEA3E0FFEF4E70367B027A3C
:100A8000407902900069E0FCA3E0FD121F8C9040C9
:100A9000017407F0904001E0FFEF5401FF7E00EF8A
:100AA0004E70F19043A1E0FFEF54FEFFEFF0904055
:100AB00001E4F09043A1E0FFEF5401FF7E00EF4E10
:100AC000603A7B027A407902900064E0FCA3E0FD8A
:100AD000121F8C900066E0FFEF60047F0280027FAF
:100AE00000EF4401FF904001EFF0904001E0FFEF84
:100AF0005401FF7E00EF4E602B80EF227B027A4193
:100B00007900900064E0FCA3E0FD121F8C9043A1EB
:100B1000C083C082E0FF900067E0FEEF4EFFD0820E
:100B2000D083EFF0227B007A4679E8121FD8EF4499
:100B300005FD7B007A4679E8121FE4750A00E50A94
:100B4000C39409503AAF0AEF75F005A42439F58231
:100B5000E43420F583AF82AE838E088F09AE08AFF0
:100B6000098F828E83120533AE08AF098F828E8380
:100B7000740393FC740493FD121E68050A80BF7B06
:100B8000087A007900121D09905883740AF07B01DD
:100B90007A507903121FD8EF4402FD7B017A507915
:100BA00003121FE47B017A507913121FD8EF44021D
:100BB000FD7B017A507913121FE49043A0E0FFEF10
:100BC0004440FF9043A0EFF09043C2E0FFEF441099
:100BD000FF9043C2EFF07B087A017940C003C00266
:100BE000C0017B007A51790290006D12052AD00174
:100BF000D002D0037F087E00121CA77B087A0179FF
:100C000048C003C002C0017B007A51791290006D88
:100C100012052AD001D002D0037F087E00121CA743
:100C20007B087A017950C003C002C0017B007A5171
:100C3000792290006D12052AD001D002D0037F08DE
:100C40007E00121CA79044F47401F0904322E0FF50
:100C5000EF4408FF904322EFF09046ECE0FFEFC333
:100C600094055006904689743AF090480074F1F06B
:100C7000120E2290480074B1F0121B3E7B007A43A2
:100C800079A0C003C002C0017B007A4379B0900014
:100C90006D12052AD001D002D0037F0E7E00121CF7
:100CA000A79043B0E0FFEF54FDFFEFF0227F947E6A
:100CB000017D007C0090006B120515905120E0FF33
:100CC000EF5480FFEFF0905122E0FFEF54F0FF90DF
:100CD000006AEFF090006AE0FFEF440FFF905122AE
:100CE000EFF0905123E0FFEF54F0FF90006AEFF037
:100CF00090006AE0FF905123EFF0905124E0FFEF65
:100D000054F0FF90006AEFF090006AE0FF905124E9
:100D1000EFF0905120E0FFEF54DFFFEFF090512013
:100D2000E0FFEF4440FFEFF07F007E00121CDC90FC
:100D30005120E0FFEF4410FFEFF07F017E00121C16
:100D4000DC905121E0FF90006AEFF0905120E0FF2D
:100D5000EF54EFFFEFF07F007E00121CDC90006A82
:100D6000E0FFEF5408FF90006AEFF0905120E0FFA1
:100D7000EF4410FFEFF07F017E00121CDC90512049
:100D8000E0FFEF54EFFFEFF090006AE0FFEF700735
:100D90007F0A7E00121CDC90006B1204FD7BFF7A40
:100DA000FF79FF78FF12033990006B120515900050
:100DB0006AE0FFEF601290006B1204FDD3EF940025
:100DC000EE94004003020D28905120E0FFEF54BF45
:100DD000FFEFF0905120E0FFEF5480FFEFF09051D3
:100DE00022E0FFEF54F0FFEFF0905123E0FFEF54CB
:100DF000F0FF90006AEFF090006AE0FFEF440FFF11
:100E0000905123EFF0905124E0FFEF54F0FF900059
:100E10006AEFF090006AE0FFEF440FFF905124EF7B
:100E2000F0227B007A4079807D007C00121F8A903E
:100E300040827450F07B007A4079847D177C0012E8
:100E40001F8A9040867418F07B007A4079887D5F15
:100E50007C09121F8A90408A7418F07B087A017905
:100E600058C003C002C0017B007A41790090006D38
:100E700012052AD001D002D0037F047E00121CA7E5
:100E80009043007402F09040007408F090420074A7
:100E900003F07B0C7A017908121FD89046A1EFF07D
:100EA0007B007A4279227D087C00121F8A7B007ABF
:100EB0004279207D517C12121F8A900067E4F07FF6
:100EC000197E007D007C0090006312051590006380
:100ED0001204FDD3EF9400EE9400404E900067E0C2
:100EE000FFEF64036044904225E0FFEF5401FF7E72
:100EF00000900067E0FEEE25E0FEEE4FFFEF5403AA
:100F0000FF900067EFF07FE07E017D007C00121C07
:100F1000009000631204FD7BFF7AFF79FF78FF12D7
:100F2000033990006312051580A39000631204FD3D
:100F3000EF4E70057F03121F197B007A4079047D04
:100F4000007C01121F8A9040047407F0904006E470
:100F5000F09040087448F0904004E4F09040017430
:100F600002F090400B7404F09043A2E0FFEF4407BE
:100F7000FF9043A2EFF09043A1E0FFEF4401FF9008
:100F800043A1EFF09043A0E0FFEF4480FF9043A027
:100F9000EFF022900063EFF0900063E0FFEFC39466
:100FA0000C50037F0522900063E0FFEFC3941950BB
:100FB000037F0622900063E0FFEFC3942650037F77
:100FC0000722900063E0FFEFC3943250037F0822B2
:100FD000900063E0FFEFC3943E50037F092290002E
:100FE00063E0FFEFC3944B50037F0A22900063E05D
:100FF000FFEFC3945750037F0B22900063E0FFEF95
:10100000C3946450037F0C22900063E0FFEFC3940D
:101010007050037F0D22900063E0FFEFC3947D507A
:10102000037F0E22900063E0FFEFC3948950037F9B
:101030000F22900063E0FFEFC3949650037F1022CD
:10104000900063E0FFEFC394A250037F1122900051
:1010500063E0FFEFC394AF50037F1222900063E080
:10106000FFEFC394BB50037F1322900063E0FFEFB8
:10107000C394C850037F1422900063E0FFEFC39431
:10108000D450037F1522900063E0FFEFC394E1503A
:10109000037F1622900063E0FFEFC394ED50037FBF
:1010A0001722900063E0FFEFC394FA50037F1822E9
:1010B000900063E0FFEFD394FA40027F1922121FE1
:1010C000B47F00121BBF121A21900047EFF090006E
:1010D00047E0FF120F93900044EFF0900062E0FFB2
:1010E000EFD3941950047F0180027F00900062E0EA
:1010F000FEEEC3940540047E0180027E00EE5FFF99
:10110000EF6025900048E0FFEFB4010E900062E030
:10111000FF04F0900043EFF08032900062E0FF1493
:10112000F0900043EFF08024900062E0FFEFD39452
:1011300019400D900048E4F0900062E014F0800C3B
:101140009000487401F0900062E004F0900043E0E9
:10115000FFEFD3940940047F0180027F0090004399
:10116000E0FEEEC3941450047E0180027E00EE5F28
:10117000FFEF6010900043E0FFEF2406FF9000496E
:10118000EFF08025900043E0FFEFD39413401090E0
:101190000043E0FFEF240CFF900049EFF0800A903D
:1011A0000043E0FF900049EFF07D0A7F00121891A4
:1011B000900049E0FF121D36900043E0FF121F4BE4
:1011C0002275930078007583467582E8E04401F04B
:1011D000009046ECE0F99046FAE0FAB90322542078
:1011E000B40012B8001AEA901FFFF07401901FFEBD
:1011F000F09046F6F0901FFEE06005901FFFE0FAC9
:1012000090480074C0F075810C900000780079203F
:10121000E4F0A3D8FCD9FAEA90008FF0020011752F
:101220000B1F750CFD121989120B25021269021B86
:1012300080E493A3F8E493A34003F68001F208DF6F
:10124000F48029E493A3F85407240CC8C333C4548E
:101250000F4420C8834004F456800146F6DFE48042
:101260000B0102040810204080901839E47E01939D
:1012700060BCA3FF543F30E509541FFEE493A36014
:10128000010ECF54C025E060A840B8E493A3FAE46F
:1012900093A3F8E493A3C8C582C8CAC583CAF0A3C0
:1012A000C8C582C8CAC583CADFE9DEE780BE900030
:1012B00063EFF090007BE4F0900063E0FFEF6401E7
:1012C0006003021392904E007438F0904E02740442
:1012D000F0904E037406F0904E04E4F0904E05E456
:1012E000F0904E06740FF0904E08E4F0904E09E432
:1012F000F0904E0AE4F0904E147401F0905884740B
:1013000014F09058857405F09058867416F0905833
:1013100087E4F090588A7444F090588B7448F090A9
:10132000588C7401F090588E7401F090588F74119D
:10133000F09058907419F09058917497F07F521271
:1013400018E89058947458F0905895E4F090589A92
:101350007401F090589B7401F090589CE4F0905800
:101360009D740AF07F00121E337F337E007D007C67
:10137000009000811205157D017F247E001207FB7D
:101380007D017F957E001209907C1B7DFE7F1D12E2
:1013900015C322121EEF900064EFF0900075E0FF7D
:1013A000900063EFF09043AAE0FFEF4401FFEFF0FD
:1013B0009043AAE0FFEF4410FFEFF09043BAE0FF44
:1013C000EF4401FFEFF09043BAE0FFEF4410FFEF6E
:1013D000F09046F8E0FFEF4402FFEFF09046F9E0AE
:1013E000FFEF4402FFEFF0905891E0FFEF4403FF5E
:1013F000EFF07F037E00121CDC9046F8E0FFEF5414
:10140000FDFFEFF09046F9E0FFEF54FDFFEFF090A5
:101410005877E0FFEF4406FFEFF0905882747AF0BF
:101420009043A1E0FFEF4401FFEFF09043B1E0FFF4
:10143000EF4401FFEFF09043A2E0FFEF4401FFEF24
:10144000F09043B2E0FFEF4401FFEFF09044DB7413
:1014500020F09044C37420F0900064E0FF121E81DD
:10146000229000757401F0900080E4F07F10121D4E
:10147000D47F10121DF57D077F1D121725905896F9
:101480007404F0905897E4F090589EE4F0905B0755
:10149000E0FFEF4418FFEFF0905893E4F0905B8882
:1014A000E4F0905B89E4F0905880740AF0905881E1
:1014B000E4F0905883E4F09058887412F0905889C2
:1014C0007413F090588DE4F0904E017414F0900075
:1014D000687408F09000697401F07B007A807D6B7D
:1014E0007C8D7F021205F6900075E0FFEF75F0032A
:1014F000A4247CF582E43400F583E0FF904E0EEFE7
:10150000F0900075E0FFEF75F003A4247AF582E413
:101510003400F583E0FCA3E0FD7B027A4E790C12E7
:101520001F8C900075E0FF1212AE22904F00E0FF7A
:10153000EF5401FFEFF0904F02E0FFEF54FCFFEF9C
:10154000F0904F02E0FFEF54F3FFEFF0904F02E016
:10155000FFEF440CFFEFF0904F02E0FFEF547FFFEE
:10156000EFF0904F02E0FFEF4480FFEFF0904F026A
:10157000E0FFEF4400FFEFF0904F0BE0FFEF54CFA0
:10158000FFEFF0904F0BE0FFEF4430FFEFF0904F94
:101590000BE0FFEF54F0FFEFF0904F0BE0FFEF4454
:1015A0000FFFEFF0904F01E0FFEF4401FFEFF07FFE
:1015B000FF7EFF121D617FFF7EFF121E4E7F001215
:1015C0001F6B22900064EFF0900065ECF0A3EDF04B
:1015D000900064E0FFEFD3941F5003D38001C34019
:1015E000057F00121F04900064E0FFEF541FFF7E90
:1015F00000EF25E0FFEE33FEEF2400FFEE3444FE63
:10160000AA06A9077B01121F7D900067EEF0A3EFE9
:10161000F0900064E0FF7E02EF8EF0A4FFAEF0EFEA
:101620002400FFEE3444FEAA06A9077B0190006562
:10163000E0FEA3E0FFAD07AC06121F8C900067E050
:10164000FEA3E0FF227F287E007D007C001216BFF3
:101650007F03121A6A7F057E007D007C001216BF90
:101660007F03121A6A7F0F7E007D007C001216BF76
:101670007F03121A6A7F017E007D007C001216BF74
:101680007F02121A6A7F057E007D007C001216BF61
:101690007F06121C717F0E121C717F2C121C717F31
:1016A00008121C717F01121C717F0C121C717F03C8
:1016B000121C717F057E007D007C001216BF2290F7
:1016C000FFFC120565120515850B83850C8212043B
:1016D000FDD3EF9400EE9480402F9000901204FD13
:1016E000121C00850B83850C82C083C0821204FD0E
:1016F000EF2400FFEE3480FEED34FFFDEC34FFFC00
:10170000D082D08312051580BF9000861204FD851B
:101710000B83850C82120509120354121C009000E1
:101720000412056522900063EFF0900064EDF090E4
:101730000064E0FFEFD394075003D38001C340055A
:101740007F00121F04900063E0FFEFD3941F50034B
:10175000D38001C340057F00121F04900064E0FFA6
:10176000EF5407FF7E00EF75F020A4FFAEF090006D
:1017700063E0FEEE541FFE74802EF582E43444F5DF
:1017800083EFF02290006AEFF0905120E0FFEF44E9
:1017900020FFEFF0905120E0FFEF54BFFFEFF07F0C
:1017A000007E00121CDC905120E0FFEF54F0FFEFB0
:1017B000F0905120C083C082E0FF90006AE0FEEE0E
:1017C0004410FEEF4EFFD082D083EFF07F017E0009
:1017D000121CDC905120E0FFEF54EFFFEFF022905D
:1017E0006472E0FFEF54C0FF900063EFF09000637D
:1017F000E0FFEF4409FF906472EFF0906492E0FF25
:10180000EF4401FFEFF07FC7121F2B7FC7121F3B72
:101810007F0A121F4B7F00121F5B121EEF900064A5
:10182000EFF0906492E0FFEF4410FFEFF09000645F
:10183000E0FF121E81121FA7224200450000440053
:101840005E000000004100800041007B0041007606
:101850000041007C004100750141009B0041009A5D
:10186000004100990041009C0044008B016E36004D
:1018700044008600005DC041008A184400902EE0BC
:10188000000041009DFF43009400000041009E00C5
:1018900000900063EFF0900064EDF0900063E0FFD3
:1018A000EF12053F18B40018C10118CE0218DB036F
:1018B000000018E7900064E0FFEF2480FF121C7125
:1018C00022900064E0FFEF24C0FF121C7122900000
:1018D00064E0FFEF2494FF121C7122900064E0FF8B
:1018E000EF24D4FF121C7122900064EFF0121EEF5F
:1018F000900065EFF09046F8E0FFEF4403FFEFF053
:101900009046F9E0FFEF4403FFEFF0900064E0FF42
:10191000905892EFF07F037E00121CDC9046F8E0B6
:10192000FFEF54FCFFEFF09046F9E0FFEF54FCFFAF
:10193000EFF0900065E0FF121E8122900063120517
:101940002A9000667401F09000631205211202F8DB
:10195000FF900067EFF0900067E0FFEF602A9000D3
:1019600067E0FF121C3B900063120521900066E0C7
:10197000FFE92FF9E43AFA1202F8FF900067EFF05E
:10198000900066E004F080CE22900063E4F09000C6
:1019900063E0FFEFD3941F503D900063E0FF7E02B1
:1019A000EF8EF0A4FFAEF0EF2400FFEE3444FEAA69
:1019B00006A9077B01C003C002C0017BFF7A207922
:1019C0002FAC02AD01D001D002D003121F8C9000C9
:1019D00063E004F080B822900066EFF0900066E0CB
:1019E000FFEFC394025039900066E0FFEF25E0243A
:1019F00033F582E43420F583E493FE740193FF8F82
:101A0000828E83C083C082E0FF900066E0FEEE908D
:101A1000203793FEEEF4FEEF5EFFD082D083EFF02E
:101A200022904E14E0FFEF5403FF900064EFF0901B
:101A30004E10E0FF900063EFF0900064E0FFEFB421
:101A40000207904E11E0FF800E900064E0FFEFB4BB
:101A50000305904E12E0FF90007BE0FFEF600590E1
:101A60000080E4F0900063E0FF22900067EFF090C8
:101A70005120E0FFEF549FFFEFF0905120E0FFEF87
:101A800054F0FFEFF0905120C083C082E0FF90003F
:101A900067E0FEEE4410FEEF4EFFD082D083EFF001
:101AA0007F017E00121CDC905120E0FFEF54EFFF1D
:101AB000EFF022900065EFF0900065E0FFEFC39437
:101AC000025036900065E0FFEF25E02433F582E414
:101AD0003420F583E493FE740193FF8F828E83C0DC
:101AE00083C082E0FF900065E0FEEE90203793FE19
:101AF000EF4EFFD082D083EFF022C2D5E830E70F5F
:101B0000B2D5E4C39BFBE49AFAE499F9E498F8ECC3
:101B100030E717B2D5121B301203DFE4C39BFBE49E
:101B20009AFAE499F9E498F880031203DF30D50DAE
:101B3000E4C39FFFE49EFEE49DFDE49CFC227B0C3D
:101B40007A0179CF121FD8900063EFF0900063E024
:101B5000FFEF5407FF90586EEFF0900063E0FFEF47
:101B6000C4540FFFEF540FFF90586FEFF090512DBA
:101B70007480F0905B007408F09058767444F02202
:101B80009000487401F09000627405F09000447475
:101B9000C8F0121E99121EB0121E16121EC57D002C
:101BA0007F001218917BFF7A1F79F012193BD2AF98
:101BB0009044F474FDF0121EDA1210BE80FB2290E5
:101BC0000063EFF090007BE0FFEF600C900080E09E
:101BD000FF900064EFF0800E904E01E0FFEF5401A3
:101BE000FF900064EFF0900064E0FFEF6401600894
:101BF000900063E0FFEF60CC900064E0FF2232329F
:101C0000EC4D4E700D78FCEF24E950032840FD2286
:101C100000007BF178DA0000EF28FF78FFEE38FE55
:101C2000ED38FDEC38FC50E7EF2BFFEE38FEED38D9
:101C3000FDEC38FC40F22205020304900068EFF04E
:101C4000120CAD900068E0FFEFC4540FFF900069E4
:101C5000EFF0900069E0FF121784900068E0FFEF5A
:101C6000540FFF900069EFF0900069E0FF121784B5
:101C700022900065EFF0120CAD900065E0FFEFC41C
:101C8000540FFF900066EFF0900066E0FF121A6AB2
:101C9000900065E0FFEF540FFF900066EFF09000BA
:101CA00066E0FF121A6A22758600EF4E6027EF6029
:101CB000010E75930090006DE0F595A3E0F585A306
:101CC000E0F5848B938A838982E0A30586F0A315CF
:101CD00086DFF6DEF4E4F593F5952232EEFA900015
:101CE0008AE0F88FF0A4FFAEF0E88AF0A42EFEE5BB
:101CF000F03400FDEF24C9FF78FFEE38FEED38FD2B
:101D0000E438FC5003021C0022ACEAADA08B938A9D
:101D1000838982E0F96017A3E0F5EAA3E0F5A0A3C8
:101D2000E060F4FAA3E0F8A3E0F2DAF8D9E98DA0D4
:101D30008CEAE4F59322900063EFF0900063E0FFFB
:101D4000EFC4540FFFEF90206693FF121F9990008D
:101D500063E0FFEF540FFFEF90206693FF121F998F
:101D600022900063EEF0A3EFF0900063E0FEA3E0AA
:101D7000FF900065EEF0A3EFF07B027A4F790490BC
:101D80000065E0FCA3E0FD121F8C22900065E4F0EA
:101D9000900065E0FFEFC394025010900065E0FFF3
:101DA0001219D7900065E004F080E590009D74FF63
:101DB000F0229043A3E0FFEF4401FFEFF09043B324
:101DC000E0FFEF4401FFEFF0904F00E0FFEF440130
:101DD000FFEFF022900063EFF0904082C083C0825A
:101DE000E0FF900063E0FEEE54F8FEEF4EFFD0827D
:101DF000D083EFF022900063EFF0904102C083C0E7
:101E000082E0FF900063E0FEEE54F8FEEF4EFFD05C
:101E100082D083EFF022900076E0FFEF7011900007
:101E20007CE0FFEF70031214619000767401F012F1
:101E3000139322900064EFF0121D8B900064E0FF7A
:101E4000121AB3900064E0FF90009DEFF022900022
:101E500063EEF0A3EFF07B027A4F7906900063E027
:101E6000FCA3E0FD121F8C22EC4D6011ED60010C13
:101E70008B938A838982E4F0A3DDFCDCFA759300FE
:101E800022EF54016004D2AF8002C2AFEF5402FFD0
:101E90009044F4E054FD4FF0229043A2E0FFEF4461
:101EA00004FFEFF09043B2E0FFEF4404FFEFF022B5
:101EB00090009BE0FFEF70091217DF90009B740108
:101EC000F0121FC022900099E0FFEF700912164532
:101ED0009000997401F0121FCC2290009CE0FFEF5B
:101EE000700912152B90009C7401F0121DB2229003
:101EF00044F4E0F84402F0E85402FF10AF01227409
:101F0000014FFF2290FFFF120565EFF09046EA7443
:101F100001F090000112056522900068EFF090003A
:101F200068E0FF900068EFF080FE22900065EFF01F
:101F3000900065E0FF906402EFF022900065EFF002
:101F4000900065E0FF906442EFF022900065EFF0B2
:101F5000900065E0FF906422EFF022900065EFF0C2
:101F6000900065E0FF906482EFF022900063EFF054
:101F7000900063E0FF904F03EFF0228B938A8389F8
:101F800082E0FFA3E0FE759300228B938A8389820F
:101F9000EDF0A3ECF075930022900064EFF0900058
:101FA00064E0FF121C3B22122023EF30E4051220D4
:101FB0002980F422904E00E0FFEF4401FFEFF02271
:101FC000906472E0FFEF4480FFEFF0227F0C121C60
:101FD0007190009A7401F0228B938A838982E07554
:101FE0009300FF228B938A838982EDF07593002200
:101FF000536572766F20506F733A007B027A407996
:1020000080121F7D22904082E0FFEF5407FF227B69
:10201000027A417900121F7D22904102E0FFEF54C5
:1020200007FF22906462E0FF22906452E0FF22806A
:10203000FE32325B0343244000004F00000C00518D
:102040003000400051C000100051F00010010000AD
:10205000100001140008000140000A00014C0002B9
:1020600000015000002030313233343536373839F2
:06207000414243444546D5
:00000001FF
